S0170000495244415F6D65676138385F3136382E7372656386
S113000019C028C027C026C025C024C023C022C0D0
S113001021C020C01FC01EC01DC01CC01BC01AC0F0
S113002019C018C04AC016C015C014C013C012C0ED
S113003011C010C011241FBECFEFD4E0DEBFCDBF6E
S113004021E0A0E0B1E001C01D92A230B207E1F7C7
S11300505CD066C0D5CFA0E8B0E08C918F778C934C
S1130060E1E8F0E080818F7E80838C9182688C93BC
S1130070808181618083E6E8F0E08EE690E0918300
S11300808083808191819695879590938900809350
S1130090880008959093C5008093C40088ED8093F0
S11300A0C10086E08093C2000895E0ECF0E0908106
S11300B095FFFDCF8093C60008951F920F920FB64F
S11300C00F9211242F933F934F935F936F937F93DA
S11300D08F939F93AF93BF93EF93FF938091C60049
S11300E080930101E2DF5A9AFF91EF91BF91AF91A2
S11300F09F918F917F916F915F914F913F912F913C
S11301000F900FBE0F901F901895219A519A5098F6
S1130110529AA1DF87E690E0BDDF78945A98FECF2B
S1070120F894FFCF7D
S9030000FC
