S0110000495244415F4D3132382E73726563AC
S113000045C0000060C000005EC000005CC000008D
S11300105AC0000058C0000056C0000054C0000080
S113002052C0000050C000004EC000004CC0000090
S11300304AC0000048C0000046C0000024C10000BF
S113004042C0000040C000003EC000003CC00000B0
S11300503AC0000038C0000036C0000034C00000C0
S113006032C0000030C000002EC000002CC00000D0
S11300702AC0000028C0000026C0000024C00000E0
S113008022C0000020C000001EC0000011241FBEBA
S1130090CFEFD0E1DEBFCDBF11E0A0E0B1E0ECECEA
S11300A0F8E000E00BBF02C007900D92A431B10745
S11300B0D9F721E0A4E1B1E001C01D92A033B20759
S11300C0E1F7BED301C49CCF1F93182F8A3011F4DB
S11300D08DE0FADF5D9BFECF1CB980E090E01F91BC
S11300E008951F93BC015F9BFECF1CB1812FECDFF1
S11300F0812F90E01F910895382F843010F081E013
S11301000895483010F082E00895822F90E002C0F4
S1130110880F991F4A95E2F7282F313089F0313042
S113012028F03230B9F03330F1F41FC08AB3862B93
S11301308ABB8BB3262360958623282B2BBB13C045
S113014087B3862B87BB88B3262360958623282B09
S113015028BB09C084B3862B84BB85B32623609552
S11301608623282B25BB80E0089582B1862B82B993
S113017083B1262360958623282B23B980E0089534
S1130180F901843010F081E00895483010F082E0E5
S113019008958130B9F0813028F0823019F183302C
S11301A0C1F539C08AB3882329F09AB3862F809584
S11301B0892305C08AB3882319F4862F80958ABBC6
S11301C089B31FC087B3882329F097B3862F8095FE
S11301D0892305C087B3882319F4862F809587BBAC
S11301E086B30FC084B3882329F094B3862F8095F7
S11301F0892305C084B3882319F4862F809584BB92
S113020083B3862390E002C0959587954A95E2F7DB
S1130210808380E0089582B1882329F092B1862FEB
S11302208095892305C082B1882319F4862F80958F
S113023082B981B1862390E002C0959587954A954D
S1130240E2F7808380E0089512BE82E087BF88EDE4
S113025081BF83B78A6083BF1092290180E008952B
S1130260209129012A3010F081E00895E22FF0E076
S1130270EE0FFF1FEC5EFE4F918380832F5F209370
S1130280290180E008951F920F920FB60F920BB6CA
S11302900F9211241F932F933F934F935F936F9368
S11302A07F938F939F93AF93BF93EF93FF9310E04C
S11302B00BC0E12FF0E0EE0FFF1FEC5EFE4F01904C
S11302C0F081E02D09951F5F80912901181788F3AB
S11302D0FF91EF91BF91AF919F918F917F916F911A
S11302E05F914F913F912F911F910F900BBE0F90F3
S11302F00FBE0F901F901895DF92EF92FF920F930D
S11303001F93CF93DF93082FD62EE72E813210F060
S113031081E024C0E6D08B3A01F5E3D08B3AE9F4CE
S1130320E0D08B3AD1F4DDD0F82E182F8D2D9E2DF0
S11303309C01E90103C0D5D08993180F9E012D19A2
S11303402017C8F3CED0F01611F083E007C0811750
S113035011F480E003C084E001C082E0DF91CF911A
S11303601F910F91FF90EF90DF900895EF92FF920D
S11303700F931F93CF93DF93082F7B01813210F0EB
S113038081E016C08AEAA9D08AEAA7D08AEAA5D071
S1130390802FA3D0102FE70104C088819ED08991BB
S11303A0180F9E012E192017C0F3812F96D080E0DC
S11303B0DF91CF911F910F91FF90EF9008951092CC
S11303C0900091E199B98AB188618AB9E5E9F0E0D0
S11303D08081866080831092980090939900EAE966
S11303E0F0E0808188618083EDE9F0E080818660BF
S11303F0808380E091E090932D0180932C01909371
S11304002B0180932A0187B3806E87BB80E008D0DC
S113041080E0089590E0883008F091E0892F0895F5
S1130420982F883010F081E0089588B39295990F41
S1130430907E8F71892B88BB80E00895982F8091DE
S11304409B0085FFFCCF90939C0083EB92E0019787
S1130450F1F7089580919B0087FFFCCF80919C0069
S113046008958FB9779BFECF8FB108951FB8779BFE
S1130470FECF8FB108951F93162FD2DF8DE393E043
S11304800197F1F780919B0085FFFCCF10939C00AE
S113049083EB92E00197F1F780E01F910895CF93E9
S11304A0DF93EB01BDDF8DE393E00197F1F720E0EB
S11304B030E008C02F5F3F4F8FEF2F3F380711F414
S11304C081E008C080919B0087FFF4CF80919C005D
S11304D0888380E0DF91CF9108955D9BFECF8CB936
S11304E008955F9BFECF8CB1089584E980937400D6
S11304F0089584EA809374008091740087FFFCCF90
S113050080917100887F883011F480E0089584E937
S11305108093740081E0089584E9809374000895C1
S113052084EA809374008091740087FFFCCF8091EB
S11305307100887F803111F480E0089584E980930C
S1130540740082E0089590E0880F991F80937300EF
S113055084E8809374008091740087FFFCCF8091BD
S11305607100887F883119F084E9809374000895BC
S1130570880F8F5F8093730084E880937400809168
S1130580740087FFFCCF80917100887F803419F05C
S113059084E98093740008958093730084E88093C1
S11305A074008091740087FFFCCF80917100887F74
S11305B0883219F084E980937400089584EC809360
S11305C074008091740087FFFCCF80917100887F54
S11305D0803519F084E98093740080917300089544
S11305E084E8809374008091740087FFFCCF80912D
S11305F07100887F883519F084E980937400089528
S1130600FF920F931F93182F062FF42E72DF812F62
S11306109ADF802FC1DF8F2DBFDF84E980937400C0
S11306201F910F91FF9008950F931F93082F162F7A
S113063060DF802F88DF812FAFDF72DF802F98DFAC
S1130640BDDF182FCDDF84E980937400812F1F91C3
S11306500F910895809370000895EF92FF920F9385
S11306601F93182F062FF72EE42E43DF813009F451
S113067041C0812F90E0880F991F90708093730080
S113068084E8809374008091740087FFFCCF80918C
S11306907100887F883139F4802F9F2D9C01F901E6
S11306A090E024E81AC084E98093740083E022C0B7
S11306B0808180937300209374008091740087FF7D
S11306C0FCCF809171003196887F883229F084E9CB
S11306D08093740084E00EC09F5F9E1548F381E010
S11306E08E1520F484E98093740003C081E0809324
S11306F0280180E01F910F91FF90EF9008950F93D0
S11307001F93CF93DF93082FEB01142F80912801BF
S1130710813039F405DF823009F473C01092280166
S113072001C0E7DE813009F46CC0802F90E0880FAF
S1130730991F81608093730084E880937400809192
S1130740740087FFFCCF80917100887F803429F08A
S113075084E98093740085E054C01230D0F140E005
S1130760212F30E02150304054EC17C050937400D6
S11307708091740087FFFCCF80917100887F803561
S113078029F084E98093740086E03BC08091730073
S1130790FE01E40FF11D80834F5F842F90E08217E8
S11307A0930724F384E8809374008091740087FF96
S11307B0FCCF80917100887F883529F084E980938B
S11307C0740087E01EC080917300C10FD11D219772
S11307D013C084E8809374008091740087FFFCCF79
S11307E080917100887F883529F084E980937400B2
S11307F088E007C080917300888384E98093740043
S113080080E0DF91CF911F910F91089582E88FBD11
S113081089E18EBD82E291E097BD86BD81E990E0D9
S11308209BBD8ABD08959093900089B988E18AB9E7
S11308308EE08093950008955D9BFECF8CB908955A
S1130840BD9ABDDDE3DF8FE890E0EDDF8EE091E05F
S11308500BD0119A199A80E0EFDF8FE493EC0197A3
S1130860F1F700C00000F6CF0F931F93CF93DF93EF
S1130870E0912C01F0912D01238121FF1BC08C01FB
S1130880D0E0C0E0F80181918F0160912C0170915A
S11308902D01DB011896ED91FC911997882331F015
S11308A00995892B79F3DFEFCFEFECCF8AE0099537
S11308B0892B19F08FEF9FEF02C08D2F9C2FDF91B2
S10F08C0CF911F910F910895F894FFCF81
S11308CC0000000300000000640071000000737459
S10708DC61727400CD
S9030000FC
